:100000000C942A000C9498010C9447000C9447001F
:100010000C9447000C9447000C9447000C94470044
:100020000C9447000C9447000C9447000C94220257
:100030000C9447000C9447000C9447000C94470024
:100040000C9447000C9447000C9447000C94470014
:100050000C94470011241FBECFE5D8E0DEBFCDBF12
:1000600010E0A0E6B0E0EAE5FDE002C005900D92E8
:10007000AC3BB107D9F720E0ACEBB0E001C01D927A
:10008000A03DB207E1F70E945B020C94AB060C9412
:10009000000061E083E10E942C0460E085E10E94A1
:1000A0002C0460E084E10E942C0461E086E10E945F
:1000B0002C04089560E083E10E942C0461E085E156
:1000C0000E942C0461E084E10E942C0460E086E13F
:1000D0000E942C04089561E083E10E942C0461E0F9
:1000E00085E10E942C0460E084E10E942C0460E021
:1000F00086E10E942C04089560E083E10E942C04B4
:1001000060E085E10E942C0461E084E10E942C04FF
:1001100061E086E10E942C04089560E083E10E9482
:100120002C0460E085E10E942C0460E084E10E94E0
:100130002C0460E086E10E942C040895982F907FA3
:100140009BBB98B39D7F98BB98B3986098BBE1EE3A
:10015000F4E03197F1F700C0000098B3977F98BBA7
:10016000E1EEF4E03197F1F700C00000F0E18F9F7D
:10017000C00111248BBB88B3886088BB81EE94E0FA
:100180000197F1F700C0000088B3877F88BBE1EEDC
:10019000F4E03197F1F700C00000089580EF8ABBCA
:1001A00087B38E6087BB80E28BBB88B3886088BBD7
:1001B00081EE94E00197F1F700C0000088B3877FDB
:1001C00088BB81EE94E00197F1F700C0000088E25F
:1001D0000E949E0081EE94E00197F1F700C00000BC
:1001E0008FE00E949E0081EE94E00197F1F700C03D
:1001F000000080E80E949E000895982F907F9BBB8E
:1002000098B3926098BB98B3986098BBE1EEF4E025
:100210003197F1F700C0000098B3977F98BBE1EEEB
:10022000F4E03197F1F700C00000F0E18F9FC001CA
:1002300011248BBB88B3886088BB81EE94E0019762
:10024000F1F700C0000088B3877F88BBE1EEF4E0DF
:100250003197F1F700C0000008950F931F93CF93DB
:10026000DF938C01C0E0D0E003C00E94FD00219626
:10027000F801EC0FFD1F80818111F7CFDF91CF9145
:100280001F910F91089520E4829FC001112480687E
:10029000860F0E949E0080E18A95F1F700C00895C4
:1002A0008FB5826A8FBD8EB58B618EBD87E893E175
:1002B00097BD86BD0895682F70E080E090E00E94B1
:1002C0005B0525E83BEE41E350E40E94E70520E0B2
:1002D00030E04AEF52E40E94B7040E9423057BBD40
:1002E0006ABD089585B7816085BF8BB780648BBF79
:1002F000089581B3816081BB81B38B7F81BB82B361
:10030000846082BB0E9472010E94AE0408958091B5
:10031000C10081110CC082B3816082BB80E58A95E7
:10032000F1F782B38E7F82BB81E08093C100089594
:100330001F920F920FB60F9211242F933F934F935A
:100340005F936F937F938F939F93AF93BF93EF933D
:10035000FF938091C100813009F063C08091C0009B
:1003600081110DC012BE81E08093C0001092BC00CC
:100370001092BD001092BE001092BF0052C080913A
:10038000BC009091BD00A091BE00B091BF00BA2FFB
:10039000A92F982F882722B7BC01CD01620F711DAC
:1003A000811D911D24EA33E040E050E00E94540694
:1003B0002093C2003093C3004093C4005093C50003
:1003C00060E081E00E9443014AE066EC70E08091C9
:1003D000C2009091C3000E947606A6ECB0E00D909A
:1003E0000020E9F7119785E0E7EBF0E001900D922E
:1003F0008A95E1F786EC90E00E942D012FEF83EFC4
:1004000091E0215080409040E1F700C00000109240
:10041000BC001092BD001092BE001092BF0010925E
:10042000C000FF91EF91BF91AF919F918F917F910C
:100430006F915F914F913F912F910F900FBE0F9051
:100440001F9018951F920F920FB60F9211242F93A1
:100450008F939F93AF93BF938091BC009091BD0009
:10046000A091BE00B091BF000196A11DB11D809367
:10047000BC009093BD00A093BE00B093BF008B3D25
:100480009240A105B10568F012BE1092C100109211
:10049000C0001092BC001092BD001092BE001092DD
:1004A000BF00BF91AF919F918F912F910F900FBE81
:1004B0000F901F9018950E944E030E94CE000E943C
:1004C00079010E945001789461E08CE00E942C0434
:1004D00061E08DE00E942C048AE50E945B012FEF11
:1004E00089E698E1215080409040E1F700C000008B
:1004F0000E9487018FE59AEE0197F1F700C0000096
:100500008AE50E945B010E9449009FEF21EE84E092
:10051000915020408040E1F700C000008091C2006F
:100520009091C300A091C400B091C5004F97A10560
:10053000B105F0F60E948D009FEF21EE84E091500E
:1005400020408040E1F700C000008DE20E945B0186
:100550009FEF29E688E1915020408040E1F700C0FC
:1005600000000E9487019FEF29E688E1915020401A
:100570008040E1F700C000008091C2009091C3006C
:10058000A091C400B091C5004F97A105B10508F036
:100590006BC087E80E945B019FEF29E688E19150DC
:1005A00020408040E1F700C000000E9487019FEFDB
:1005B00029E688E1915020408040E1F700C000002A
:1005C0008091C2009091C300A091C400B091C50079
:1005D0004F97A105B10570F58AE50E945B019FEF79
:1005E00021EE84E0915020408040E1F700C00000FF
:1005F0000E945A009FEF23ED80E3915020408040FD
:10060000E1F700C000000E947C009FEF24E38CE033
:10061000915020408040E1F700C000000E948D0012
:100620009FEF23ED80E3915020408040E1F700C030
:1006300000005ECF0E946B009FEF24E38CE091509E
:1006400020408040E1F700C000000E948D008AE554
:100650000E945B019FEF23ED80E39150204080409A
:10066000E1F700C0000044CF0E947C009FEF24E32C
:100670008CE0915020408040E1F700C000000E94D3
:100680008D008AE50E945B019FEF23ED80E391508E
:1006900020408040E1F700C000002ACF80E090E0D9
:1006A000D6C0FC01EE0FFF1FE80FF91FE05AFF4F05
:1006B00020812130C9F138F0223009F466C023309E
:1006C00009F494C0C3C0FC01EE0FFF1FE80FF91F2F
:1006D000E05AFF4F2281213099F44AB3FC01EE0F1A
:1006E000FF1FE80FF91FE05AFF4F21E030E00180C3
:1006F00002C0220F331F0A94E2F7242B2ABBA6C0A4
:100700004AB3FC01EE0FFF1FE80FF91FE05AFF4F3D
:1007100021E030E0018002C0220F331F0A94E2F78B
:10072000209524232ABB92C0FC01EE0FFF1FE80F87
:10073000F91FE05AFF4F2281213099F447B3FC01A1
:10074000EE0FFF1FE80FF91FE05AFF4F21E030E0E6
:10075000018002C0220F331F0A94E2F7242B27BB2B
:1007600075C047B3FC01EE0FFF1FE80FF91FE05AF9
:10077000FF4F21E030E0018002C0220F331F0A94B6
:10078000E2F72095242327BB61C0FC01EE0FFF1F79
:10079000E80FF91FE05AFF4F2281213099F444B34A
:1007A000FC01EE0FFF1FE80FF91FE05AFF4F21E099
:1007B00030E0018002C0220F331F0A94E2F7242B9D
:1007C00024BB44C044B3FC01EE0FFF1FE80FF91F28
:1007D000E05AFF4F21E030E0018002C0220F331FBA
:1007E0000A94E2F72095242324BB30C0FC01EE0FCD
:1007F000FF1FE80FF91FE05AFF4F2281213099F4C3
:1008000041B3FC01EE0FFF1FE80FF91FE05AFF4F45
:1008100021E030E0018002C0220F331F0A94E2F78A
:10082000242B21BB13C041B3FC01EE0FFF1FE80FC7
:10083000F91FE05AFF4F21E030E0018002C0220F93
:10084000331F0A94E2F72095242321BB01968032BE
:10085000910508F426CF0895982F9695969596952C
:100860008770913021F130F09230F1F1933009F43A
:1008700058C00895613069F44BB321E030E0B9010C
:1008800002C0660F771F8A95E2F7CB01842B8BBBE2
:1008900008954BB321E030E0B90102C0660F771F25
:1008A0008A95E2F7CB01809584238BBB0895613054
:1008B00069F448B321E030E0B90102C0660F771F48
:1008C0008A95E2F7CB01842B88BB089548B321E0D9
:1008D00030E0B90102C0660F771F8A95E2F7CB01BD
:1008E0008095842388BB0895613069F445B321E085
:1008F00030E0B90102C0660F771F8A95E2F7CB019D
:10090000842B85BB089545B321E030E0B90102C0D6
:10091000660F771F8A95E2F7CB018095842385BB0C
:100920000895613069F442B321E030E0B90102C0BA
:10093000660F771F8A95E2F7CB01842B82BB08955F
:1009400042B321E030E0B90102C0660F771F8A95FB
:10095000E2F7CB018095842382BB089513BE81E02A
:1009600083BF12BE89B7816089BF08955058BB27E5
:10097000AA270E94CE040C94AD050E949F0538F072
:100980000E94A60520F039F49F3F19F426F40C9438
:100990009C050EF4E095E7FB0C949605E92F0E9468
:1009A000BE0558F3BA17620773078407950720F04E
:1009B00079F4A6F50C94E0050EF4E0950B2EBA2F11
:1009C000A02D0B01B90190010C01CA01A001112455
:1009D000FF27591B99F0593F50F4503E68F11A1601
:1009E000F040A22F232F342F4427585FF3CF469592
:1009F00037952795A795F0405395C9F77EF41F16B4
:100A0000BA0B620B730B840BBAF09150A1F0FF0F7D
:100A1000BB1F661F771F881FC2F70EC0BA0F621F69
:100A2000731F841F48F4879577956795B795F79559
:100A30009E3F08F0B0CF9395880F08F09927EE0FEE
:100A40009795879508950E942A056894B1110C9492
:100A5000E10508950E94C60588F09F5798F0B92FC8
:100A60009927B751B0F0E1F0660F771F881F991FE3
:100A70001AF0BA95C9F714C0B13091F00E94E005A0
:100A8000B1E008950C94E005672F782F8827B85FB0
:100A900039F0B93FCCF3869577956795B395D9F73B
:100AA0003EF490958095709561957F4F8F4F9F4F45
:100AB0000895E89409C097FB3EF490958095709551
:100AC00061957F4F8F4F9F4F9923A9F0F92F96E99A
:100AD000BB279395F695879577956795B795F1110F
:100AE000F8CFFAF4BB0F11F460FF1BC06F5F7F4FAC
:100AF0008F4F9F4F16C0882311F096E911C07723BE
:100B000021F09EE8872F762F05C0662371F096E8C6
:100B1000862F70E060E02AF09A95660F771F881F95
:100B2000DAF7880F9695879597F9089597F99F6753
:100B300080E870E060E008959FEF80EC0895002465
:100B40000A941616170618060906089500240A9432
:100B500012161306140605060895092E0394000CB8
:100B600011F4882352F0BB0F40F4BF2B11F460FF47
:100B700004C06F5F7F4F8F4F9F4F089557FD905870
:100B8000440F551F59F05F3F71F04795880F97FB51
:100B9000991F61F09F3F79F087950895121613060B
:100BA0001406551FF2CF4695F1DF08C0161617063A
:100BB0001806991FF1CF869571056105089408956F
:100BC000E894BB2766277727CB0197F908950E9401
:100BD000FA050C94AD050E949F0538F00E94A60509
:100BE00020F0952311F00C9496050C949C0511248B
:100BF0000C94E1050E94BE0570F3959FC1F3950F1B
:100C000050E0551F629FF001729FBB27F00DB11D90
:100C1000639FAA27F00DB11DAA1F649F6627B00D20
:100C2000A11D661F829F2227B00DA11D621F739F09
:100C3000B00DA11D621F839FA00D611D221F749F17
:100C40003327A00D611D231F849F600D211D822F5E
:100C5000762F6A2F11249F5750409AF0F1F0882385
:100C60004AF0EE0FFF1FBB1F661F771F881F9150B2
:100C70005040A9F79E3F510580F00C9496050C94C6
:100C8000E1055F3FE4F3983ED4F386957795679549
:100C9000B795F795E7959F5FC1F7FE2B880F911DDC
:100CA0009695879597F90895A1E21A2EAA1BBB1B6A
:100CB000FD010DC0AA1FBB1FEE1FFF1FA217B30728
:100CC000E407F50720F0A21BB30BE40BF50B661F3E
:100CD000771F881F991F1A9469F760957095809502
:100CE00090959B01AC01BD01CF010895BB274A300F
:100CF00031F4992322F4BDE2909581959F4F0C9495
:100D00008206BB27FB015527AA27880F991FAA1F18
:100D1000A41710F0A41B83955051B9F7A05DAA3316
:100D200008F0A95DA193009779F7B111B1931192E1
:100D3000CB010C949B06DC01FC01672F719177239A
:100D4000E1F7329704C07C916D9370836291AE1786
:0A0D5000BF07C8F30895F894FFCF21
:100D5A00000100000201000301010000020200027A
:100D6A000301020401020501020601020701030050
:100D7A000103010103020003030103040103050146
:100D8A000306000307000004010005010006010034
:100D9A000701010101010201010301010401010529
:0C0DAA000101060001070120636D20001C
:00000001FF
