S01A0000414D49545F46696E616C5F50726F6A6563742E7372656360
S11300000C942A000C9421010C9447000C94470092
S11300100C9447000C9447000C9447000C94470040
S11300200C9447000C9447000C9447000C94AB01CB
S11300300C9447000C9447000C9447000C94470020
S11300400C9447000C9447000C9447000C94470010
S11300500C94470011241FBECFE5D8E0DEBFCDBF0E
S113006010E0A0E6B0E0E4E7FAE002C005900D92EB
S1130070AC3BB107D9F720E0ACEBB0E001C01D9276
S1130080A03DB207E1F70E94E4010C9438050C94FA
S11300900000982F907F9BBB98B39D7F98BB98B32B
S11300A0986098BBE1EEF4E03197F1F700C00000EE
S11300B098B3977F98BBE1EEF4E03197F1F700C075
S11300C00000F0E18F9FC00111248BBB88B38860CE
S11300D088BB81EE94E00197F1F700C0000088B37B
S11300E0877F88BBE1EEF4E03197F1F700C00000B0
S11300F0089580EF8ABB87B38E6087BB80E28BBB99
S113010088B3886088BB81EE94E00197F1F700C062
S1130110000088B3877F88BB81EE94E00197F1F7F4
S113012000C0000088E20E94490081EE94E001973B
S1130130F1F700C000008FE00E94490081EE94E0D6
S11301400197F1F700C0000080E80E94490008957B
S1130150982F907F9BBB98B3926098BB98B398609C
S113016098BBE1EEF4E03197F1F700C0000098B3DA
S1130170977F98BBE1EEF4E03197F1F700C00000FF
S1130180F0E18F9FC00111248BBB88B3886088BBCA
S113019081EE94E00197F1F700C0000088B3877FF7
S11301A088BBE1EEF4E03197F1F700C00000089558
S11301B00F931F93CF93DF938C01C0E0D0E003C073
S11301C00E94A8002196F801EC0FFD1F8081811187
S11301D0F7CFDF91CF911F910F91089520E4829F73
S11301E0C00111248068860F0E94490080E18A952D
S11301F0F1F700C0089585B7816085BF8BB780642F
S11302008BBF089581B3816081BB81B38B7F81BB38
S113021082B3846082BB0E94FB000E944204089562
S11302208091C10081110CC082B3816082BB88E2DD
S11302308A95F1F782B38E7F82BB81E08093C100FF
S113024008951F920F920FB60F9211242F933F938C
S11302504F935F936F937F938F939F93AF93BF93CA
S1130260EF93FF938091C100813009F063C08091C6
S1130270C00081110DC012BE81E08093C0001092B5
S1130280BC001092BD001092BE001092BF0052C07C
S11302908091BC009091BD00A091BE00B091BF00C0
S11302A0BA2FA92F982F882722B7BC01CD01620F3E
S11302B0711D811D911D24EA33E040E050E00E944D
S11302C0D2042093C2003093C3004093C4005093DF
S11302D0C50060E081E00E94EE004AE066EC70E058
S11302E08091C2009091C3000E940305A6ECB0E087
S11302F00D900020E9F7119785E0E7EBF0E001901D
S11303000D928A95E1F786EC90E00E94D8002FEFD9
S113031089EF90E0215080409040E1F700C0000058
S11303201092BC001092BD001092BE001092BF004B
S11303301092C000FF91EF91BF91AF919F918F9167
S11303407F916F915F914F913F912F910F900FBECD
S11303500F901F9018951F920F920FB60F921124B1
S11303602F938F939F93AF93BF938091BC009091F1
S1130370BD00A091BE00B091BF000196A11DB11DAA
S11303808093BC009093BD00A093BE00B093BF00C7
S11303908B3D9240A105B10568F012BE1092C100D8
S11303A01092C0001092BC001092BD001092BE00CA
S11303B01092BF00BF91AF919F918F912F910F9099
S11303C00FBE0F901F9018950E94E2020E947900C0
S11303D00E9402010E9498040E944A04789461E0F9
S11303E08CE00E94C00361E08DE00E94C0038AE0BB
S11303F00E94BB042FEF8EE994E22150804090408C
S1130400E1F700C000000E9410018FE295E7019718
S1130410F1F700C000008AE00E94BB049FEF29E6C8
S113042088E1915020408040E1F700C000000E9424
S113043057049FEF20E782E0915020408040E1F78D
S113044000C000008091C2009091C300A091C4003C
S1130450B091C5004F97A105B105A8F60E948B0481
S11304609FEF24E38CE0915020408040E1F700C0EE
S113047000008AE00E94BB049FEF28E08DE39150C6
S113048020408040E1F700C000000E9410019FEF6F
S113049020E782E0915020408040E1F700C0000056
S11304A08091C2009091C300A091C400B091C50096
S11304B04F97A105B10508F06BC08DE20E94BB0403
S11304C09FEF24E38CE0915020408040E1F700C08E
S11304D000000E9410019FEF24E38CE09150204023
S11304E08040E1F700C000008091C2009091C300F9
S11304F0A091C400B091C5004F97A105B10570F556
S11305008AE50E94BB049FEF20E782E091502040DF
S11305108040E1F700C000000E9464049FEF24E3E0
S11305208CE0915020408040E1F700C000000E9420
S11305307E049FEF20E782E0915020408040E1F765
S113054000C000000E948B049FEF20E782E09150DE
S113055020408040E1F700C0000055CF0E947104A4
S11305609FE72AE186E0915020408040E1F700C0F7
S113057000000E948B048AE50E94BB049FEF20E7E1
S113058082E0915020408040E1F700C000003BCF62
S11305900E947E049FE72AE186E09150204080403B
S11305A0E1F700C000000E948B048AE50E94BB04AE
S11305B09FEF20E782E0915020408040E1F700C0A7
S11305C0000021CF80E090E0D6C0FC01EE0FFF1FB9
S11305D0E80FF91FE05AFF4F20812130C9F138F0AC
S11305E0223009F466C0233009F494C0C3C0FC016E
S11305F0EE0FFF1FE80FF91FE05AFF4F2281213051
S113060099F44AB3FC01EE0FFF1FE80FF91FE05AFB
S1130610FF4F21E030E0018002C0220F331F0A9413
S1130620E2F7242B2ABBA6C04AB3FC01EE0FFF1F3E
S1130630E80FF91FE05AFF4F21E030E0018002C0CB
S1130640220F331F0A94E2F7209524232ABB92C079
S1130650FC01EE0FFF1FE80FF91FE05AFF4F228144
S1130660213099F447B3FC01EE0FFF1FE80FF91F87
S1130670E05AFF4F21E030E0018002C0220F331F17
S11306800A94E2F7242B27BB75C047B3FC01EE0F95
S1130690FF1FE80FF91FE05AFF4F21E030E001800F
S11306A002C0220F331F0A94E2F72095242327BBAC
S11306B061C0FC01EE0FFF1FE80FF91FE05AFF4F66
S11306C02281213099F444B3FC01EE0FFF1FE80F9F
S11306D0F91FE05AFF4F21E030E0018002C0220FF1
S11306E0331F0A94E2F7242B24BB44C044B3FC0117
S11306F0EE0FFF1FE80FF91FE05AFF4F21E030E033
S1130700018002C0220F331F0A94E2F720952423AC
S113071024BB30C0FC01EE0FFF1FE80FF91FE05AA5
S1130720FF4F2281213099F441B3FC01EE0FFF1FEA
S1130730E80FF91FE05AFF4F21E030E0018002C0CA
S1130740220F331F0A94E2F7242B21BB13C041B3B9
S1130750FC01EE0FFF1FE80FF91FE05AFF4F21E0E5
S113076030E0018002C0220F331F0A94E2F7209583
S1130770242321BB01968032910508F426CF0895E5
S1130780982F9695969596958770913021F130F033
S11307909230F1F1933009F458C00895613069F44E
S11307A04BB321E030E0B90102C0660F771F8A9590
S11307B0E2F7CB01842B8BBB08954BB321E030E0EF
S11307C0B90102C0660F771F8A95E2F7CB018095C5
S11307D084238BBB0895613069F448B321E030E091
S11307E0B90102C0660F771F8A95E2F7CB01842B0B
S11307F088BB089548B321E030E0B90102C0660F18
S1130800771F8A95E2F7CB018095842388BB0895EE
S1130810613069F445B321E030E0B90102C0660FEC
S1130820771F8A95E2F7CB01842B85BB089545B3E6
S113083021E030E0B90102C0660F771F8A95E2F724
S1130840CB018095842385BB0895613069F442B35C
S113085021E030E0B90102C0660F771F8A95E2F704
S1130860CB01842B82BB089542B321E030E0B9016F
S113087002C0660F771F8A95E2F7CB018095842327
S113088082BB089513BE81E083BF12BE89B7816025
S113089089BF089584B3886084BB84B3806184BBBA
S11308A084B3806284BB84B3806484BB089585B3BD
S11308B0886085BB85B38F7E85BB85B3806285BB2D
S11308C085B38F7B85BB089585B3877F85BB85B34F
S11308D0806185BB85B38F7D85BB85B3806485BB13
S11308E0089585B3886085BB85B38F7E85BB85B34A
S11308F08F7D85BB85B38F7B85BB089585B3877F4B
S113090085BB85B38F7E85BB85B3806285BB85B38C
S11309108F7B85BB089585B3877F85BB85B38F7E29
S113092085BB85B38F7D85BB85B38F7B85BB0895E0
S113093081B3806281BB8EB580618EBD8EB58860C7
S11309408EBD8FB582608FBD8FB58E7F8FBD8FB505
S113095080688FBD8FB58F7B8FBD8EB584608EBD53
S11309608EB58D7F8EBD8EB58E7F8EBD82EE94E06A
S113097097BD86BD089546B557B5282F249FC0015D
S1130980259F900D11249C01369527953695279522
S1130990ABE7B4E10E94F4049695879501979BBD5B
S11309A08ABD0895A1E21A2EAA1BBB1BFD010DC02E
S11309B0AA1FBB1FEE1FFF1FA217B307E407F5070B
S11309C020F0A21BB30BE40BF50B661F771F881FE7
S11309D0991F1A9469F760957095809590959B017D
S11309E0AC01BD01CF010895A29FB001B39FC00126
S11309F0A39F700D811D1124911DB29F700D811D47
S1130A001124911D0895BB274A3031F4992322F40F
S1130A10BDE2909581959F4F0C940F05BB27FB0178
S1130A205527AA27880F991FAA1FA41710F0A41BE3
S1130A3083955051B9F7A05DAA3308F0A95DA1933D
S1130A40009779F7B111B1931192CB010C94280559
S1130A50DC01FC01672F71917723E1F7329704C021
S1130A607C916D9370836291AE17BF07C8F30895AC
S1070A70F894FFCF24
S1130A74000100000201000301010000020200025F
S1130A840301020401020501020601020701030035
S1130A94010301010302000303010304010305012B
S1130AA40306000307000004010005010006010019
S1130AB4070101010101020101030101040101050E
S10F0AC40101060001070120636D200001
S9030000FC
